:1000000009C016C015C015C013C012C011C010C061
:100010000FC00EC011241FBECFE9CDBF10E0A0E677
:10002000B0E001C01D92A536B107E1F799D031C10A
:10003000E7CF1F920F920FB60F9211248F939F93C9
:10004000809160009091610001969093610080938F
:10005000600080916000909161008F319105D4F033
:1000600080916200882351F486B78C5F86BF86B783
:100070008B3F60F081E08093620008C086B78450B7
:1000800086BF86B7853010F410926200109261002E
:10009000109260009F918F910F900FBE0F901F9054
:1000A00018950F931F93CF93DF9320E030E0E9EA98
:1000B000F1E0E61BF70BC82FDD27C7FDD09508E060
:1000C00010E01EC0C398C901BE01AAD0B801BAD0C1
:1000D000709561957F4F6D597F4F80E090E002C031
:1000E0000000019668177907DCF7C39A80E090E07A
:1000F00002C00000019668177907DCF72F5F3F4FB9
:100100002E173F07FCF2DF91CF911F910F910895B9
:1001100081E060E070E0C5DFC49A81E066E970E0EC
:10012000C0DF8AEF86BFC4988FED9EE20197F1F79A
:1001300000C00000C49A8FEF96E7A1E08150904084
:10014000A040E1F700C00000C498AFEBBDE51197F7
:10015000F1F700C000008FEF6EE17BEFA2DF0895A2
:1001600087B3886187BBC498B89A8FB5896C8FBDF7
:1001700084E686BF83B7826083BF89B7826089BF08
:10018000789486B1836886B987B1816287B981E046
:1001900060E070E086DF40E0379A369A3699FECF0D
:1001A000369A01C037983699FDCF85B1242F30E0BB
:1001B000841738F485B1281B31092430310544F403
:1001C00028C085B190E0821B930B843091050CF11F
:1001D0009FDFC49AC4988FEB9DE50197F1F700C0AB
:1001E0000000C49A8FEB9DE50197F1F700C0000075
:1001F000C4988FEB9DE50197F1F700C00000379A96
:10020000369A3699FECF369A01C037983699FDCF87
:1002100045B18FEB9DE50197F1F700C00000BCCF21
:100220005527002480FF02C0060E571F660F771F58
:100230006115710521F096958795009799F7952F8F
:10024000802D089597FB092E07260AD077FD04D04C
:100250000CD006D000201AF4709561957F4F089558
:10026000F6F7909581959F4F0895AA1BBB1B51E10E
:1002700007C0AA1FBB1FA617B70710F0A61BB70B16
:10028000881F991F5A95A9F780959095BC01CD01BB
:060290000895F894FFCF71
:00000001FF
